{
  "contractName": "NFT",
  "abi": [
    {
      "inputs": [],
      "stateMutability": "nonpayable",
      "type": "constructor"
    },
    {
      "anonymous": false,
      "inputs": [
        {
          "indexed": true,
          "internalType": "address",
          "name": "owner",
          "type": "address"
        },
        {
          "indexed": true,
          "internalType": "address",
          "name": "approved",
          "type": "address"
        },
        {
          "indexed": true,
          "internalType": "uint256",
          "name": "tokenId",
          "type": "uint256"
        }
      ],
      "name": "Approval",
      "type": "event"
    },
    {
      "anonymous": false,
      "inputs": [
        {
          "indexed": true,
          "internalType": "address",
          "name": "owner",
          "type": "address"
        },
        {
          "indexed": true,
          "internalType": "address",
          "name": "operator",
          "type": "address"
        },
        {
          "indexed": false,
          "internalType": "bool",
          "name": "approved",
          "type": "bool"
        }
      ],
      "name": "ApprovalForAll",
      "type": "event"
    },
    {
      "anonymous": false,
      "inputs": [
        {
          "indexed": true,
          "internalType": "address",
          "name": "from",
          "type": "address"
        },
        {
          "indexed": true,
          "internalType": "address",
          "name": "to",
          "type": "address"
        },
        {
          "indexed": true,
          "internalType": "uint256",
          "name": "tokenId",
          "type": "uint256"
        }
      ],
      "name": "Transfer",
      "type": "event"
    },
    {
      "inputs": [],
      "name": "admin",
      "outputs": [
        {
          "internalType": "address",
          "name": "",
          "type": "address"
        }
      ],
      "stateMutability": "view",
      "type": "function",
      "constant": true
    },
    {
      "inputs": [
        {
          "internalType": "address",
          "name": "to",
          "type": "address"
        },
        {
          "internalType": "uint256",
          "name": "tokenId",
          "type": "uint256"
        }
      ],
      "name": "approve",
      "outputs": [],
      "stateMutability": "nonpayable",
      "type": "function"
    },
    {
      "inputs": [
        {
          "internalType": "address",
          "name": "owner",
          "type": "address"
        }
      ],
      "name": "balanceOf",
      "outputs": [
        {
          "internalType": "uint256",
          "name": "",
          "type": "uint256"
        }
      ],
      "stateMutability": "view",
      "type": "function",
      "constant": true
    },
    {
      "inputs": [
        {
          "internalType": "uint256",
          "name": "tokenId",
          "type": "uint256"
        }
      ],
      "name": "getApproved",
      "outputs": [
        {
          "internalType": "address",
          "name": "",
          "type": "address"
        }
      ],
      "stateMutability": "view",
      "type": "function",
      "constant": true
    },
    {
      "inputs": [
        {
          "internalType": "address",
          "name": "owner",
          "type": "address"
        },
        {
          "internalType": "address",
          "name": "operator",
          "type": "address"
        }
      ],
      "name": "isApprovedForAll",
      "outputs": [
        {
          "internalType": "bool",
          "name": "",
          "type": "bool"
        }
      ],
      "stateMutability": "view",
      "type": "function",
      "constant": true
    },
    {
      "inputs": [],
      "name": "name",
      "outputs": [
        {
          "internalType": "string",
          "name": "",
          "type": "string"
        }
      ],
      "stateMutability": "view",
      "type": "function",
      "constant": true
    },
    {
      "inputs": [],
      "name": "nextTokenId",
      "outputs": [
        {
          "internalType": "uint256",
          "name": "",
          "type": "uint256"
        }
      ],
      "stateMutability": "view",
      "type": "function",
      "constant": true
    },
    {
      "inputs": [
        {
          "internalType": "uint256",
          "name": "tokenId",
          "type": "uint256"
        }
      ],
      "name": "ownerOf",
      "outputs": [
        {
          "internalType": "address",
          "name": "",
          "type": "address"
        }
      ],
      "stateMutability": "view",
      "type": "function",
      "constant": true
    },
    {
      "inputs": [
        {
          "internalType": "address",
          "name": "from",
          "type": "address"
        },
        {
          "internalType": "address",
          "name": "to",
          "type": "address"
        },
        {
          "internalType": "uint256",
          "name": "tokenId",
          "type": "uint256"
        }
      ],
      "name": "safeTransferFrom",
      "outputs": [],
      "stateMutability": "nonpayable",
      "type": "function"
    },
    {
      "inputs": [
        {
          "internalType": "address",
          "name": "from",
          "type": "address"
        },
        {
          "internalType": "address",
          "name": "to",
          "type": "address"
        },
        {
          "internalType": "uint256",
          "name": "tokenId",
          "type": "uint256"
        },
        {
          "internalType": "bytes",
          "name": "_data",
          "type": "bytes"
        }
      ],
      "name": "safeTransferFrom",
      "outputs": [],
      "stateMutability": "nonpayable",
      "type": "function"
    },
    {
      "inputs": [
        {
          "internalType": "address",
          "name": "operator",
          "type": "address"
        },
        {
          "internalType": "bool",
          "name": "approved",
          "type": "bool"
        }
      ],
      "name": "setApprovalForAll",
      "outputs": [],
      "stateMutability": "nonpayable",
      "type": "function"
    },
    {
      "inputs": [
        {
          "internalType": "bytes4",
          "name": "interfaceId",
          "type": "bytes4"
        }
      ],
      "name": "supportsInterface",
      "outputs": [
        {
          "internalType": "bool",
          "name": "",
          "type": "bool"
        }
      ],
      "stateMutability": "view",
      "type": "function",
      "constant": true
    },
    {
      "inputs": [],
      "name": "symbol",
      "outputs": [
        {
          "internalType": "string",
          "name": "",
          "type": "string"
        }
      ],
      "stateMutability": "view",
      "type": "function",
      "constant": true
    },
    {
      "inputs": [
        {
          "internalType": "uint256",
          "name": "tokenId",
          "type": "uint256"
        }
      ],
      "name": "tokenURI",
      "outputs": [
        {
          "internalType": "string",
          "name": "",
          "type": "string"
        }
      ],
      "stateMutability": "view",
      "type": "function",
      "constant": true
    },
    {
      "inputs": [
        {
          "internalType": "address",
          "name": "from",
          "type": "address"
        },
        {
          "internalType": "address",
          "name": "to",
          "type": "address"
        },
        {
          "internalType": "uint256",
          "name": "tokenId",
          "type": "uint256"
        }
      ],
      "name": "transferFrom",
      "outputs": [],
      "stateMutability": "nonpayable",
      "type": "function"
    },
    {
      "inputs": [
        {
          "internalType": "address",
          "name": "to",
          "type": "address"
        }
      ],
      "name": "mint",
      "outputs": [],
      "stateMutability": "nonpayable",
      "type": "function"
    }
  ],
  "bytecode": "0x60806040523480156200001157600080fd5b506040518060400160405280600e81526020017f4d7920506c6179657273204e46540000000000000000000000000000000000008152506040518060400160405280600a81526020017f504c41594552534e465400000000000000000000000000000000000000000000815250816000908051906020019062000096929190620000f9565b508060019080519060200190620000af929190620000f9565b50505033600760006101000a81548173ffffffffffffffffffffffffffffffffffffffff021916908373ffffffffffffffffffffffffffffffffffffffff1602179055506200020e565b8280546200010790620001a9565b90600052602060002090601f0160209004810192826200012b576000855562000177565b82601f106200014657805160ff191683800117855562000177565b8280016001018555821562000177579182015b828111156200017657825182559160200191906001019062000159565b5b5090506200018691906200018a565b5090565b5b80821115620001a55760008160009055506001016200018b565b5090565b60006002820490506001821680620001c257607f821691505b60208210811415620001d957620001d8620001df565b5b50919050565b7f4e487b7100000000000000000000000000000000000000000000000000000000600052602260045260246000fd5b612819806200021e6000396000f3fe608060405234801561001057600080fd5b50600436106101005760003560e01c806370a0823111610097578063b88d4fde11610066578063b88d4fde146102ab578063c87b56dd146102c7578063e985e9c5146102f7578063f851a4401461032757610100565b806370a082311461022357806375794a3c1461025357806395d89b4114610271578063a22cb4651461028f57610100565b806323b872dd116100d357806323b872dd1461019f57806342842e0e146101bb5780636352211e146101d75780636a6278421461020757610100565b806301ffc9a71461010557806306fdde0314610135578063081812fc14610153578063095ea7b314610183575b600080fd5b61011f600480360381019061011a9190611a5f565b610345565b60405161012c9190612197565b60405180910390f35b61013d610427565b60405161014a91906121b2565b60405180910390f35b61016d60048036038101906101689190611ab1565b6104b9565b60405161017a9190612130565b60405180910390f35b61019d60048036038101906101989190611a23565b61053e565b005b6101b960048036038101906101b4919061191d565b610656565b005b6101d560048036038101906101d0919061191d565b6106b6565b005b6101f160048036038101906101ec9190611ab1565b6106d6565b6040516101fe9190612130565b60405180910390f35b610221600480360381019061021c91906118b8565b610788565b005b61023d600480360381019061023891906118b8565b610863565b60405161024a91906123b4565b60405180910390f35b61025b61091b565b60405161026891906123b4565b60405180910390f35b610279610921565b60405161028691906121b2565b60405180910390f35b6102a960048036038101906102a491906119e7565b6109b3565b005b6102c560048036038101906102c0919061196c565b610b34565b005b6102e160048036038101906102dc9190611ab1565b610b96565b6040516102ee91906121b2565b60405180910390f35b610311600480360381019061030c91906118e1565b610c3d565b60405161031e9190612197565b60405180910390f35b61032f610cd1565b60405161033c9190612130565b60405180910390f35b60007f80ac58cd000000000000000000000000000000000000000000000000000000007bffffffffffffffffffffffffffffffffffffffffffffffffffffffff1916827bffffffffffffffffffffffffffffffffffffffffffffffffffffffff1916148061041057507f5b5e139f000000000000000000000000000000000000000000000000000000007bffffffffffffffffffffffffffffffffffffffffffffffffffffffff1916827bffffffffffffffffffffffffffffffffffffffffffffffffffffffff1916145b80610420575061041f82610cf7565b5b9050919050565b606060008054610436906125e4565b80601f0160208091040260200160405190810160405280929190818152602001828054610462906125e4565b80156104af5780601f10610484576101008083540402835291602001916104af565b820191906000526020600020905b81548152906001019060200180831161049257829003601f168201915b5050505050905090565b60006104c482610d61565b610503576040517f08c379a00000000000000000000000000000000000000000000000000000000081526004016104fa90612314565b60405180910390fd5b6004600083815260200190815260200160002060009054906101000a900473ffffffffffffffffffffffffffffffffffffffff169050919050565b6000610549826106d6565b90508073ffffffffffffffffffffffffffffffffffffffff168373ffffffffffffffffffffffffffffffffffffffff1614156105ba576040517f08c379a00000000000000000000000000000000000000000000000000000000081526004016105b190612374565b60405180910390fd5b8073ffffffffffffffffffffffffffffffffffffffff166105d9610dcd565b73ffffffffffffffffffffffffffffffffffffffff161480610608575061060781610602610dcd565b610c3d565b5b610647576040517f08c379a000000000000000000000000000000000000000000000000000000000815260040161063e90612294565b60405180910390fd5b6106518383610dd5565b505050565b610667610661610dcd565b82610e8e565b6106a6576040517f08c379a000000000000000000000000000000000000000000000000000000000815260040161069d90612394565b60405180910390fd5b6106b1838383610f6c565b505050565b6106d183838360405180602001604052806000815250610b34565b505050565b6000806002600084815260200190815260200160002060009054906101000a900473ffffffffffffffffffffffffffffffffffffffff169050600073ffffffffffffffffffffffffffffffffffffffff168173ffffffffffffffffffffffffffffffffffffffff16141561077f576040517f08c379a0000000000000000000000000000000000000000000000000000000008152600401610776906122d4565b60405180910390fd5b80915050919050565b600760009054906101000a900473ffffffffffffffffffffffffffffffffffffffff1673ffffffffffffffffffffffffffffffffffffffff163373ffffffffffffffffffffffffffffffffffffffff1614610818576040517f08c379a000000000000000000000000000000000000000000000000000000000815260040161080f90612254565b60405180910390fd5b610824816006546111c8565b6006600081548092919061083790612616565b9190505550610848816006546111c8565b6006600081548092919061085b90612616565b919050555050565b60008073ffffffffffffffffffffffffffffffffffffffff168273ffffffffffffffffffffffffffffffffffffffff1614156108d4576040517f08c379a00000000000000000000000000000000000000000000000000000000081526004016108cb906122b4565b60405180910390fd5b600360008373ffffffffffffffffffffffffffffffffffffffff1673ffffffffffffffffffffffffffffffffffffffff168152602001908152602001600020549050919050565b60065481565b606060018054610930906125e4565b80601f016020809104026020016040519081016040528092919081815260200182805461095c906125e4565b80156109a95780601f1061097e576101008083540402835291602001916109a9565b820191906000526020600020905b81548152906001019060200180831161098c57829003601f168201915b5050505050905090565b6109bb610dcd565b73ffffffffffffffffffffffffffffffffffffffff168273ffffffffffffffffffffffffffffffffffffffff161415610a29576040517f08c379a0000000000000000000000000000000000000000000000000000000008152600401610a2090612234565b60405180910390fd5b8060056000610a36610dcd565b73ffffffffffffffffffffffffffffffffffffffff1673ffffffffffffffffffffffffffffffffffffffff16815260200190815260200160002060008473ffffffffffffffffffffffffffffffffffffffff1673ffffffffffffffffffffffffffffffffffffffff16815260200190815260200160002060006101000a81548160ff0219169083151502179055508173ffffffffffffffffffffffffffffffffffffffff16610ae3610dcd565b73ffffffffffffffffffffffffffffffffffffffff167f17307eab39ab6107e8899845ad3d59bd9653f200f220920489ca2b5937696c3183604051610b289190612197565b60405180910390a35050565b610b45610b3f610dcd565b83610e8e565b610b84576040517f08c379a0000000000000000000000000000000000000000000000000000000008152600401610b7b90612394565b60405180910390fd5b610b90848484846111e6565b50505050565b6060610ba182610d61565b610be0576040517f08c379a0000000000000000000000000000000000000000000000000000000008152600401610bd790612354565b60405180910390fd5b6000610bea611242565b90506000815111610c0a5760405180602001604052806000815250610c35565b80610c1484611262565b604051602001610c2592919061210c565b6040516020818303038152906040525b915050919050565b6000600560008473ffffffffffffffffffffffffffffffffffffffff1673ffffffffffffffffffffffffffffffffffffffff16815260200190815260200160002060008373ffffffffffffffffffffffffffffffffffffffff1673ffffffffffffffffffffffffffffffffffffffff16815260200190815260200160002060009054906101000a900460ff16905092915050565b600760009054906101000a900473ffffffffffffffffffffffffffffffffffffffff1681565b60007f01ffc9a7000000000000000000000000000000000000000000000000000000007bffffffffffffffffffffffffffffffffffffffffffffffffffffffff1916827bffffffffffffffffffffffffffffffffffffffffffffffffffffffff1916149050919050565b60008073ffffffffffffffffffffffffffffffffffffffff166002600084815260200190815260200160002060009054906101000a900473ffffffffffffffffffffffffffffffffffffffff1673ffffffffffffffffffffffffffffffffffffffff1614159050919050565b600033905090565b816004600083815260200190815260200160002060006101000a81548173ffffffffffffffffffffffffffffffffffffffff021916908373ffffffffffffffffffffffffffffffffffffffff160217905550808273ffffffffffffffffffffffffffffffffffffffff16610e48836106d6565b73ffffffffffffffffffffffffffffffffffffffff167f8c5be1e5ebec7d5bd14f71427d1e84f3dd0314c0f7b2291e5b200ac8c7c3b92560405160405180910390a45050565b6000610e9982610d61565b610ed8576040517f08c379a0000000000000000000000000000000000000000000000000000000008152600401610ecf90612274565b60405180910390fd5b6000610ee3836106d6565b90508073ffffffffffffffffffffffffffffffffffffffff168473ffffffffffffffffffffffffffffffffffffffff161480610f5257508373ffffffffffffffffffffffffffffffffffffffff16610f3a846104b9565b73ffffffffffffffffffffffffffffffffffffffff16145b80610f635750610f628185610c3d565b5b91505092915050565b8273ffffffffffffffffffffffffffffffffffffffff16610f8c826106d6565b73ffffffffffffffffffffffffffffffffffffffff1614610fe2576040517f08c379a0000000000000000000000000000000000000000000000000000000008152600401610fd990612334565b60405180910390fd5b600073ffffffffffffffffffffffffffffffffffffffff168273ffffffffffffffffffffffffffffffffffffffff161415611052576040517f08c379a000000000000000000000000000000000000000000000000000000000815260040161104990612214565b60405180910390fd5b61105d83838361140f565b611068600082610dd5565b6001600360008573ffffffffffffffffffffffffffffffffffffffff1673ffffffffffffffffffffffffffffffffffffffff16815260200190815260200160002060008282546110b891906124fa565b925050819055506001600360008473ffffffffffffffffffffffffffffffffffffffff1673ffffffffffffffffffffffffffffffffffffffff168152602001908152602001600020600082825461110f9190612473565b92505081905550816002600083815260200190815260200160002060006101000a81548173ffffffffffffffffffffffffffffffffffffffff021916908373ffffffffffffffffffffffffffffffffffffffff160217905550808273ffffffffffffffffffffffffffffffffffffffff168473ffffffffffffffffffffffffffffffffffffffff167fddf252ad1be2c89b69c2b068fc378daa952ba7f163c4a11628f55a4df523b3ef60405160405180910390a4505050565b6111e2828260405180602001604052806000815250611414565b5050565b6111f1848484610f6c565b6111fd8484848461146f565b61123c576040517f08c379a0000000000000000000000000000000000000000000000000000000008152600401611233906121d4565b60405180910390fd5b50505050565b60606040518060600160405280602a81526020016127ba602a9139905090565b606060008214156112aa576040518060400160405280600181526020017f3000000000000000000000000000000000000000000000000000000000000000815250905061140a565b600082905060005b600082146112dc5780806112c590612616565b915050600a826112d591906124c9565b91506112b2565b60008167ffffffffffffffff81111561131e577f4e487b7100000000000000000000000000000000000000000000000000000000600052604160045260246000fd5b6040519080825280601f01601f1916602001820160405280156113505781602001600182028036833780820191505090505b5090505b600085146114035760018261136991906124fa565b9150600a85611378919061265f565b60306113849190612473565b60f81b8183815181106113c0577f4e487b7100000000000000000000000000000000000000000000000000000000600052603260045260246000fd5b60200101907effffffffffffffffffffffffffffffffffffffffffffffffffffffffffffff1916908160001a905350600a856113fc91906124c9565b9450611354565b8093505050505b919050565b505050565b61141e8383611606565b61142b600084848461146f565b61146a576040517f08c379a0000000000000000000000000000000000000000000000000000000008152600401611461906121d4565b60405180910390fd5b505050565b60006114908473ffffffffffffffffffffffffffffffffffffffff166117d4565b156115f9578373ffffffffffffffffffffffffffffffffffffffff1663150b7a026114b9610dcd565b8786866040518563ffffffff1660e01b81526004016114db949392919061214b565b602060405180830381600087803b1580156114f557600080fd5b505af192505050801561152657506040513d601f19601f820116820180604052508101906115239190611a88565b60015b6115a9573d8060008114611556576040519150601f19603f3d011682016040523d82523d6000602084013e61155b565b606091505b506000815114156115a1576040517f08c379a0000000000000000000000000000000000000000000000000000000008152600401611598906121d4565b60405180910390fd5b805181602001fd5b63150b7a0260e01b7bffffffffffffffffffffffffffffffffffffffffffffffffffffffff1916817bffffffffffffffffffffffffffffffffffffffffffffffffffffffff1916149150506115fe565b600190505b949350505050565b600073ffffffffffffffffffffffffffffffffffffffff168273ffffffffffffffffffffffffffffffffffffffff161415611676576040517f08c379a000000000000000000000000000000000000000000000000000000000815260040161166d906122f4565b60405180910390fd5b61167f81610d61565b156116bf576040517f08c379a00000000000000000000000000000000000000000000000000000000081526004016116b6906121f4565b60405180910390fd5b6116cb6000838361140f565b6001600360008473ffffffffffffffffffffffffffffffffffffffff1673ffffffffffffffffffffffffffffffffffffffff168152602001908152602001600020600082825461171b9190612473565b92505081905550816002600083815260200190815260200160002060006101000a81548173ffffffffffffffffffffffffffffffffffffffff021916908373ffffffffffffffffffffffffffffffffffffffff160217905550808273ffffffffffffffffffffffffffffffffffffffff16600073ffffffffffffffffffffffffffffffffffffffff167fddf252ad1be2c89b69c2b068fc378daa952ba7f163c4a11628f55a4df523b3ef60405160405180910390a45050565b600080823b905060008111915050919050565b60006117fa6117f584612400565b6123cf565b90508281526020810184848401111561181257600080fd5b61181d8482856125a2565b509392505050565b6000813590506118348161275d565b92915050565b60008135905061184981612774565b92915050565b60008135905061185e8161278b565b92915050565b6000815190506118738161278b565b92915050565b600082601f83011261188a57600080fd5b813561189a8482602086016117e7565b91505092915050565b6000813590506118b2816127a2565b92915050565b6000602082840312156118ca57600080fd5b60006118d884828501611825565b91505092915050565b600080604083850312156118f457600080fd5b600061190285828601611825565b925050602061191385828601611825565b9150509250929050565b60008060006060848603121561193257600080fd5b600061194086828701611825565b935050602061195186828701611825565b9250506040611962868287016118a3565b9150509250925092565b6000806000806080858703121561198257600080fd5b600061199087828801611825565b94505060206119a187828801611825565b93505060406119b2878288016118a3565b925050606085013567ffffffffffffffff8111156119cf57600080fd5b6119db87828801611879565b91505092959194509250565b600080604083850312156119fa57600080fd5b6000611a0885828601611825565b9250506020611a198582860161183a565b9150509250929050565b60008060408385031215611a3657600080fd5b6000611a4485828601611825565b9250506020611a55858286016118a3565b9150509250929050565b600060208284031215611a7157600080fd5b6000611a7f8482850161184f565b91505092915050565b600060208284031215611a9a57600080fd5b6000611aa884828501611864565b91505092915050565b600060208284031215611ac357600080fd5b6000611ad1848285016118a3565b91505092915050565b611ae38161252e565b82525050565b611af281612540565b82525050565b6000611b0382612430565b611b0d8185612446565b9350611b1d8185602086016125b1565b611b268161274c565b840191505092915050565b6000611b3c8261243b565b611b468185612457565b9350611b568185602086016125b1565b611b5f8161274c565b840191505092915050565b6000611b758261243b565b611b7f8185612468565b9350611b8f8185602086016125b1565b80840191505092915050565b6000611ba8603283612457565b91507f4552433732313a207472616e7366657220746f206e6f6e20455243373231526560008301527f63656976657220696d706c656d656e74657200000000000000000000000000006020830152604082019050919050565b6000611c0e601c83612457565b91507f4552433732313a20746f6b656e20616c7265616479206d696e746564000000006000830152602082019050919050565b6000611c4e602483612457565b91507f4552433732313a207472616e7366657220746f20746865207a65726f2061646460008301527f72657373000000000000000000000000000000000000000000000000000000006020830152604082019050919050565b6000611cb4601983612457565b91507f4552433732313a20617070726f766520746f2063616c6c6572000000000000006000830152602082019050919050565b6000611cf4600a83612457565b91507f6f6e6c792061646d696e000000000000000000000000000000000000000000006000830152602082019050919050565b6000611d34602c83612457565b91507f4552433732313a206f70657261746f7220717565727920666f72206e6f6e657860008301527f697374656e7420746f6b656e00000000000000000000000000000000000000006020830152604082019050919050565b6000611d9a603883612457565b91507f4552433732313a20617070726f76652063616c6c6572206973206e6f74206f7760008301527f6e6572206e6f7220617070726f76656420666f7220616c6c00000000000000006020830152604082019050919050565b6000611e00602a83612457565b91507f4552433732313a2062616c616e636520717565727920666f7220746865207a6560008301527f726f2061646472657373000000000000000000000000000000000000000000006020830152604082019050919050565b6000611e66602983612457565b91507f4552433732313a206f776e657220717565727920666f72206e6f6e657869737460008301527f656e7420746f6b656e00000000000000000000000000000000000000000000006020830152604082019050919050565b6000611ecc602083612457565b91507f4552433732313a206d696e7420746f20746865207a65726f20616464726573736000830152602082019050919050565b6000611f0c602c83612457565b91507f4552433732313a20617070726f76656420717565727920666f72206e6f6e657860008301527f697374656e7420746f6b656e00000000000000000000000000000000000000006020830152604082019050919050565b6000611f72602983612457565b91507f4552433732313a207472616e73666572206f6620746f6b656e2074686174206960008301527f73206e6f74206f776e00000000000000000000000000000000000000000000006020830152604082019050919050565b6000611fd8602f83612457565b91507f4552433732314d657461646174613a2055524920717565727920666f72206e6f60008301527f6e6578697374656e7420746f6b656e00000000000000000000000000000000006020830152604082019050919050565b600061203e602183612457565b91507f4552433732313a20617070726f76616c20746f2063757272656e74206f776e6560008301527f72000000000000000000000000000000000000000000000000000000000000006020830152604082019050919050565b60006120a4603183612457565b91507f4552433732313a207472616e736665722063616c6c6572206973206e6f74206f60008301527f776e6572206e6f7220617070726f7665640000000000000000000000000000006020830152604082019050919050565b61210681612598565b82525050565b60006121188285611b6a565b91506121248284611b6a565b91508190509392505050565b60006020820190506121456000830184611ada565b92915050565b60006080820190506121606000830187611ada565b61216d6020830186611ada565b61217a60408301856120fd565b818103606083015261218c8184611af8565b905095945050505050565b60006020820190506121ac6000830184611ae9565b92915050565b600060208201905081810360008301526121cc8184611b31565b905092915050565b600060208201905081810360008301526121ed81611b9b565b9050919050565b6000602082019050818103600083015261220d81611c01565b9050919050565b6000602082019050818103600083015261222d81611c41565b9050919050565b6000602082019050818103600083015261224d81611ca7565b9050919050565b6000602082019050818103600083015261226d81611ce7565b9050919050565b6000602082019050818103600083015261228d81611d27565b9050919050565b600060208201905081810360008301526122ad81611d8d565b9050919050565b600060208201905081810360008301526122cd81611df3565b9050919050565b600060208201905081810360008301526122ed81611e59565b9050919050565b6000602082019050818103600083015261230d81611ebf565b9050919050565b6000602082019050818103600083015261232d81611eff565b9050919050565b6000602082019050818103600083015261234d81611f65565b9050919050565b6000602082019050818103600083015261236d81611fcb565b9050919050565b6000602082019050818103600083015261238d81612031565b9050919050565b600060208201905081810360008301526123ad81612097565b9050919050565b60006020820190506123c960008301846120fd565b92915050565b6000604051905081810181811067ffffffffffffffff821117156123f6576123f561271d565b5b8060405250919050565b600067ffffffffffffffff82111561241b5761241a61271d565b5b601f19601f8301169050602081019050919050565b600081519050919050565b600081519050919050565b600082825260208201905092915050565b600082825260208201905092915050565b600081905092915050565b600061247e82612598565b915061248983612598565b9250827fffffffffffffffffffffffffffffffffffffffffffffffffffffffffffffffff038211156124be576124bd612690565b5b828201905092915050565b60006124d482612598565b91506124df83612598565b9250826124ef576124ee6126bf565b5b828204905092915050565b600061250582612598565b915061251083612598565b92508282101561252357612522612690565b5b828203905092915050565b600061253982612578565b9050919050565b60008115159050919050565b60007fffffffff0000000000000000000000000000000000000000000000000000000082169050919050565b600073ffffffffffffffffffffffffffffffffffffffff82169050919050565b6000819050919050565b82818337600083830152505050565b60005b838110156125cf5780820151818401526020810190506125b4565b838111156125de576000848401525b50505050565b600060028204905060018216806125fc57607f821691505b602082108114156126105761260f6126ee565b5b50919050565b600061262182612598565b91507fffffffffffffffffffffffffffffffffffffffffffffffffffffffffffffffff82141561265457612653612690565b5b600182019050919050565b600061266a82612598565b915061267583612598565b925082612685576126846126bf565b5b828206905092915050565b7f4e487b7100000000000000000000000000000000000000000000000000000000600052601160045260246000fd5b7f4e487b7100000000000000000000000000000000000000000000000000000000600052601260045260246000fd5b7f4e487b7100000000000000000000000000000000000000000000000000000000600052602260045260246000fd5b7f4e487b7100000000000000000000000000000000000000000000000000000000600052604160045260246000fd5b6000601f19601f8301169050919050565b6127668161252e565b811461277157600080fd5b50565b61277d81612540565b811461278857600080fd5b50565b6127948161254c565b811461279f57600080fd5b50565b6127ab81612598565b81146127b657600080fd5b5056fe68747470733a2f2f766963746f726170692e6865726f6b756170702e636f6d2f6170692f746f6b656e2fa2646970667358221220db072d1fd83bd16af07d3c9787aa1a9c1078f44fe47d5a2581b0d552fa1a07a564736f6c63430008000033",
  "immutableReferences": {},
  "source": "// SPDX-License-Identifier: MIT\npragma solidity ^0.8.0;\n\nimport '@openzeppelin/contracts/token/ERC721/ERC721.sol';\n\ncontract NFT is ERC721 {\n  uint public nextTokenId;\n  address public admin;\n\n  constructor() ERC721('My Players NFT', 'PLAYERSNFT') {\n    admin = msg.sender;\n  }\n\n  function mint(address to) external {\n    require(msg.sender == admin, 'only admin');\n    //first token\n    _safeMint(to, nextTokenId);\n    nextTokenId++;\n    //second token\n    _safeMint(to, nextTokenId);\n    nextTokenId++;\n  }\n\n  function _baseURI() internal view override returns (string memory) {\n    return 'https://victorapi.herokuapp.com/api/token/';\n  }\n  \n\n}\n",
  "sourcePath": "/Users/haochiaoyiu/Desktop/victorlyapp/contracts/NFT.sol",
  "compiler": {
    "name": "solc",
    "version": "0.8.0+commit.c7dfd78e.Emscripten.clang"
  },
  "schemaVersion": "3.4.1",
  "updatedAt": "2021-07-02T08:01:00.115Z",
  "networkType": "ethereum",
  "devdoc": {
    "kind": "dev",
    "methods": {
      "approve(address,uint256)": {
        "details": "See {IERC721-approve}."
      },
      "balanceOf(address)": {
        "details": "See {IERC721-balanceOf}."
      },
      "getApproved(uint256)": {
        "details": "See {IERC721-getApproved}."
      },
      "isApprovedForAll(address,address)": {
        "details": "See {IERC721-isApprovedForAll}."
      },
      "name()": {
        "details": "See {IERC721Metadata-name}."
      },
      "ownerOf(uint256)": {
        "details": "See {IERC721-ownerOf}."
      },
      "safeTransferFrom(address,address,uint256)": {
        "details": "See {IERC721-safeTransferFrom}."
      },
      "safeTransferFrom(address,address,uint256,bytes)": {
        "details": "See {IERC721-safeTransferFrom}."
      },
      "setApprovalForAll(address,bool)": {
        "details": "See {IERC721-setApprovalForAll}."
      },
      "supportsInterface(bytes4)": {
        "details": "See {IERC165-supportsInterface}."
      },
      "symbol()": {
        "details": "See {IERC721Metadata-symbol}."
      },
      "tokenURI(uint256)": {
        "details": "See {IERC721Metadata-tokenURI}."
      },
      "transferFrom(address,address,uint256)": {
        "details": "See {IERC721-transferFrom}."
      }
    },
    "version": 1
  },
  "userdoc": {
    "kind": "user",
    "methods": {},
    "version": 1
  }
}