{
  "contractName": "playerone",
  "abi": [
    {
      "inputs": [],
      "stateMutability": "nonpayable",
      "type": "constructor"
    },
    {
      "anonymous": false,
      "inputs": [
        {
          "indexed": true,
          "internalType": "address",
          "name": "owner",
          "type": "address"
        },
        {
          "indexed": true,
          "internalType": "address",
          "name": "approved",
          "type": "address"
        },
        {
          "indexed": true,
          "internalType": "uint256",
          "name": "tokenId",
          "type": "uint256"
        }
      ],
      "name": "Approval",
      "type": "event"
    },
    {
      "anonymous": false,
      "inputs": [
        {
          "indexed": true,
          "internalType": "address",
          "name": "owner",
          "type": "address"
        },
        {
          "indexed": true,
          "internalType": "address",
          "name": "operator",
          "type": "address"
        },
        {
          "indexed": false,
          "internalType": "bool",
          "name": "approved",
          "type": "bool"
        }
      ],
      "name": "ApprovalForAll",
      "type": "event"
    },
    {
      "anonymous": false,
      "inputs": [
        {
          "indexed": true,
          "internalType": "address",
          "name": "previousOwner",
          "type": "address"
        },
        {
          "indexed": true,
          "internalType": "address",
          "name": "newOwner",
          "type": "address"
        }
      ],
      "name": "OwnershipTransferred",
      "type": "event"
    },
    {
      "anonymous": false,
      "inputs": [
        {
          "indexed": true,
          "internalType": "address",
          "name": "from",
          "type": "address"
        },
        {
          "indexed": true,
          "internalType": "address",
          "name": "to",
          "type": "address"
        },
        {
          "indexed": true,
          "internalType": "uint256",
          "name": "tokenId",
          "type": "uint256"
        }
      ],
      "name": "Transfer",
      "type": "event"
    },
    {
      "inputs": [],
      "name": "TokenId",
      "outputs": [
        {
          "internalType": "uint256",
          "name": "",
          "type": "uint256"
        }
      ],
      "stateMutability": "view",
      "type": "function",
      "constant": true
    },
    {
      "inputs": [],
      "name": "admin",
      "outputs": [
        {
          "internalType": "address",
          "name": "",
          "type": "address"
        }
      ],
      "stateMutability": "view",
      "type": "function",
      "constant": true
    },
    {
      "inputs": [
        {
          "internalType": "address",
          "name": "to",
          "type": "address"
        },
        {
          "internalType": "uint256",
          "name": "tokenId",
          "type": "uint256"
        }
      ],
      "name": "approve",
      "outputs": [],
      "stateMutability": "nonpayable",
      "type": "function"
    },
    {
      "inputs": [
        {
          "internalType": "address",
          "name": "owner",
          "type": "address"
        }
      ],
      "name": "balanceOf",
      "outputs": [
        {
          "internalType": "uint256",
          "name": "",
          "type": "uint256"
        }
      ],
      "stateMutability": "view",
      "type": "function",
      "constant": true
    },
    {
      "inputs": [
        {
          "internalType": "uint256",
          "name": "tokenId",
          "type": "uint256"
        }
      ],
      "name": "getApproved",
      "outputs": [
        {
          "internalType": "address",
          "name": "",
          "type": "address"
        }
      ],
      "stateMutability": "view",
      "type": "function",
      "constant": true
    },
    {
      "inputs": [
        {
          "internalType": "address",
          "name": "owner",
          "type": "address"
        },
        {
          "internalType": "address",
          "name": "operator",
          "type": "address"
        }
      ],
      "name": "isApprovedForAll",
      "outputs": [
        {
          "internalType": "bool",
          "name": "",
          "type": "bool"
        }
      ],
      "stateMutability": "view",
      "type": "function",
      "constant": true
    },
    {
      "inputs": [],
      "name": "name",
      "outputs": [
        {
          "internalType": "string",
          "name": "",
          "type": "string"
        }
      ],
      "stateMutability": "view",
      "type": "function",
      "constant": true
    },
    {
      "inputs": [],
      "name": "owner",
      "outputs": [
        {
          "internalType": "address",
          "name": "",
          "type": "address"
        }
      ],
      "stateMutability": "view",
      "type": "function",
      "constant": true
    },
    {
      "inputs": [
        {
          "internalType": "uint256",
          "name": "tokenId",
          "type": "uint256"
        }
      ],
      "name": "ownerOf",
      "outputs": [
        {
          "internalType": "address",
          "name": "",
          "type": "address"
        }
      ],
      "stateMutability": "view",
      "type": "function",
      "constant": true
    },
    {
      "inputs": [],
      "name": "renounceOwnership",
      "outputs": [],
      "stateMutability": "nonpayable",
      "type": "function"
    },
    {
      "inputs": [
        {
          "internalType": "address",
          "name": "from",
          "type": "address"
        },
        {
          "internalType": "address",
          "name": "to",
          "type": "address"
        },
        {
          "internalType": "uint256",
          "name": "tokenId",
          "type": "uint256"
        }
      ],
      "name": "safeTransferFrom",
      "outputs": [],
      "stateMutability": "nonpayable",
      "type": "function"
    },
    {
      "inputs": [
        {
          "internalType": "address",
          "name": "from",
          "type": "address"
        },
        {
          "internalType": "address",
          "name": "to",
          "type": "address"
        },
        {
          "internalType": "uint256",
          "name": "tokenId",
          "type": "uint256"
        },
        {
          "internalType": "bytes",
          "name": "_data",
          "type": "bytes"
        }
      ],
      "name": "safeTransferFrom",
      "outputs": [],
      "stateMutability": "nonpayable",
      "type": "function"
    },
    {
      "inputs": [
        {
          "internalType": "address",
          "name": "operator",
          "type": "address"
        },
        {
          "internalType": "bool",
          "name": "approved",
          "type": "bool"
        }
      ],
      "name": "setApprovalForAll",
      "outputs": [],
      "stateMutability": "nonpayable",
      "type": "function"
    },
    {
      "inputs": [
        {
          "internalType": "bytes4",
          "name": "interfaceId",
          "type": "bytes4"
        }
      ],
      "name": "supportsInterface",
      "outputs": [
        {
          "internalType": "bool",
          "name": "",
          "type": "bool"
        }
      ],
      "stateMutability": "view",
      "type": "function",
      "constant": true
    },
    {
      "inputs": [],
      "name": "symbol",
      "outputs": [
        {
          "internalType": "string",
          "name": "",
          "type": "string"
        }
      ],
      "stateMutability": "view",
      "type": "function",
      "constant": true
    },
    {
      "inputs": [
        {
          "internalType": "uint256",
          "name": "tokenId",
          "type": "uint256"
        }
      ],
      "name": "tokenURI",
      "outputs": [
        {
          "internalType": "string",
          "name": "",
          "type": "string"
        }
      ],
      "stateMutability": "view",
      "type": "function",
      "constant": true
    },
    {
      "inputs": [
        {
          "internalType": "address",
          "name": "from",
          "type": "address"
        },
        {
          "internalType": "address",
          "name": "to",
          "type": "address"
        },
        {
          "internalType": "uint256",
          "name": "tokenId",
          "type": "uint256"
        }
      ],
      "name": "transferFrom",
      "outputs": [],
      "stateMutability": "nonpayable",
      "type": "function"
    },
    {
      "inputs": [
        {
          "internalType": "address",
          "name": "newOwner",
          "type": "address"
        }
      ],
      "name": "transferOwnership",
      "outputs": [],
      "stateMutability": "nonpayable",
      "type": "function"
    },
    {
      "inputs": [
        {
          "internalType": "address",
          "name": "to",
          "type": "address"
        },
        {
          "internalType": "uint256",
          "name": "tokenid",
          "type": "uint256"
        }
      ],
      "name": "mint",
      "outputs": [],
      "stateMutability": "nonpayable",
      "type": "function"
    }
  ],
  "bytecode": "0x60806040523480156200001157600080fd5b506040518060400160405280600d81526020017f506c617965726f6e65204e4654000000000000000000000000000000000000008152506040518060400160405280600c81526020017f506c617965726f6e654e465400000000000000000000000000000000000000008152506200009e620000926200011960201b60201c565b6200012160201b60201c565b8160019080519060200190620000b6929190620001e5565b508060029080519060200190620000cf929190620001e5565b50505033600860006101000a81548173ffffffffffffffffffffffffffffffffffffffff021916908373ffffffffffffffffffffffffffffffffffffffff160217905550620002fa565b600033905090565b60008060009054906101000a900473ffffffffffffffffffffffffffffffffffffffff169050816000806101000a81548173ffffffffffffffffffffffffffffffffffffffff021916908373ffffffffffffffffffffffffffffffffffffffff1602179055508173ffffffffffffffffffffffffffffffffffffffff168173ffffffffffffffffffffffffffffffffffffffff167f8be0079c531659141344cd1fd0a4f28419497f9722a3daafe3b4186f6b6457e060405160405180910390a35050565b828054620001f39062000295565b90600052602060002090601f01602090048101928262000217576000855562000263565b82601f106200023257805160ff191683800117855562000263565b8280016001018555821562000263579182015b828111156200026257825182559160200191906001019062000245565b5b50905062000272919062000276565b5090565b5b808211156200029157600081600090555060010162000277565b5090565b60006002820490506001821680620002ae57607f821691505b60208210811415620002c557620002c4620002cb565b5b50919050565b7f4e487b7100000000000000000000000000000000000000000000000000000000600052602260045260246000fd5b612bb0806200030a6000396000f3fe608060405234801561001057600080fd5b50600436106101215760003560e01c8063715018a6116100ad578063b88d4fde11610071578063b88d4fde146102f4578063c87b56dd14610310578063e985e9c514610340578063f2fde38b14610370578063f851a4401461038c57610121565b8063715018a6146102745780638da5cb5b1461027e57806395d89b411461029c5780639ffb8b49146102ba578063a22cb465146102d857610121565b806323b872dd116100f457806323b872dd146101c057806340c10f19146101dc57806342842e0e146101f85780636352211e1461021457806370a082311461024457610121565b806301ffc9a71461012657806306fdde0314610156578063081812fc14610174578063095ea7b3146101a4575b600080fd5b610140600480360381019061013b9190611d0c565b6103aa565b60405161014d91906124ea565b60405180910390f35b61015e61048c565b60405161016b9190612505565b60405180910390f35b61018e60048036038101906101899190611d5e565b61051e565b60405161019b9190612483565b60405180910390f35b6101be60048036038101906101b99190611cd0565b6105a3565b005b6101da60048036038101906101d59190611bca565b6106bb565b005b6101f660048036038101906101f19190611cd0565b61071b565b005b610212600480360381019061020d9190611bca565b6107d1565b005b61022e60048036038101906102299190611d5e565b6107f1565b60405161023b9190612483565b60405180910390f35b61025e60048036038101906102599190611b65565b6108a3565b60405161026b9190612747565b60405180910390f35b61027c61095b565b005b6102866109e3565b6040516102939190612483565b60405180910390f35b6102a4610a0c565b6040516102b19190612505565b60405180910390f35b6102c2610a9e565b6040516102cf9190612747565b60405180910390f35b6102f260048036038101906102ed9190611c94565b610aa4565b005b61030e60048036038101906103099190611c19565b610c25565b005b61032a60048036038101906103259190611d5e565b610c87565b6040516103379190612505565b60405180910390f35b61035a60048036038101906103559190611b8e565b610d2e565b60405161036791906124ea565b60405180910390f35b61038a60048036038101906103859190611b65565b610dc2565b005b610394610eba565b6040516103a19190612483565b60405180910390f35b60007f80ac58cd000000000000000000000000000000000000000000000000000000007bffffffffffffffffffffffffffffffffffffffffffffffffffffffff1916827bffffffffffffffffffffffffffffffffffffffffffffffffffffffff1916148061047557507f5b5e139f000000000000000000000000000000000000000000000000000000007bffffffffffffffffffffffffffffffffffffffffffffffffffffffff1916827bffffffffffffffffffffffffffffffffffffffffffffffffffffffff1916145b80610485575061048482610ee0565b5b9050919050565b60606001805461049b90612977565b80601f01602080910402602001604051908101604052809291908181526020018280546104c790612977565b80156105145780601f106104e957610100808354040283529160200191610514565b820191906000526020600020905b8154815290600101906020018083116104f757829003601f168201915b5050505050905090565b600061052982610f4a565b610568576040517f08c379a000000000000000000000000000000000000000000000000000000000815260040161055f90612687565b60405180910390fd5b6005600083815260200190815260200160002060009054906101000a900473ffffffffffffffffffffffffffffffffffffffff169050919050565b60006105ae826107f1565b90508073ffffffffffffffffffffffffffffffffffffffff168373ffffffffffffffffffffffffffffffffffffffff16141561061f576040517f08c379a000000000000000000000000000000000000000000000000000000000815260040161061690612707565b60405180910390fd5b8073ffffffffffffffffffffffffffffffffffffffff1661063e610fb6565b73ffffffffffffffffffffffffffffffffffffffff16148061066d575061066c81610667610fb6565b610d2e565b5b6106ac576040517f08c379a00000000000000000000000000000000000000000000000000000000081526004016106a390612607565b60405180910390fd5b6106b68383610fbe565b505050565b6106cc6106c6610fb6565b82611077565b61070b576040517f08c379a000000000000000000000000000000000000000000000000000000000815260040161070290612727565b60405180910390fd5b610716838383611155565b505050565b600860009054906101000a900473ffffffffffffffffffffffffffffffffffffffff1673ffffffffffffffffffffffffffffffffffffffff163373ffffffffffffffffffffffffffffffffffffffff16146107ab576040517f08c379a00000000000000000000000000000000000000000000000000000000081526004016107a2906125c7565b60405180910390fd5b6107b582826113b1565b600760008154809291906107c8906129a9565b91905055505050565b6107ec83838360405180602001604052806000815250610c25565b505050565b6000806003600084815260200190815260200160002060009054906101000a900473ffffffffffffffffffffffffffffffffffffffff169050600073ffffffffffffffffffffffffffffffffffffffff168173ffffffffffffffffffffffffffffffffffffffff16141561089a576040517f08c379a000000000000000000000000000000000000000000000000000000000815260040161089190612647565b60405180910390fd5b80915050919050565b60008073ffffffffffffffffffffffffffffffffffffffff168273ffffffffffffffffffffffffffffffffffffffff161415610914576040517f08c379a000000000000000000000000000000000000000000000000000000000815260040161090b90612627565b60405180910390fd5b600460008373ffffffffffffffffffffffffffffffffffffffff1673ffffffffffffffffffffffffffffffffffffffff168152602001908152602001600020549050919050565b610963610fb6565b73ffffffffffffffffffffffffffffffffffffffff166109816109e3565b73ffffffffffffffffffffffffffffffffffffffff16146109d7576040517f08c379a00000000000000000000000000000000000000000000000000000000081526004016109ce906126a7565b60405180910390fd5b6109e160006113cf565b565b60008060009054906101000a900473ffffffffffffffffffffffffffffffffffffffff16905090565b606060028054610a1b90612977565b80601f0160208091040260200160405190810160405280929190818152602001828054610a4790612977565b8015610a945780601f10610a6957610100808354040283529160200191610a94565b820191906000526020600020905b815481529060010190602001808311610a7757829003601f168201915b5050505050905090565b60075481565b610aac610fb6565b73ffffffffffffffffffffffffffffffffffffffff168273ffffffffffffffffffffffffffffffffffffffff161415610b1a576040517f08c379a0000000000000000000000000000000000000000000000000000000008152600401610b11906125a7565b60405180910390fd5b8060066000610b27610fb6565b73ffffffffffffffffffffffffffffffffffffffff1673ffffffffffffffffffffffffffffffffffffffff16815260200190815260200160002060008473ffffffffffffffffffffffffffffffffffffffff1673ffffffffffffffffffffffffffffffffffffffff16815260200190815260200160002060006101000a81548160ff0219169083151502179055508173ffffffffffffffffffffffffffffffffffffffff16610bd4610fb6565b73ffffffffffffffffffffffffffffffffffffffff167f17307eab39ab6107e8899845ad3d59bd9653f200f220920489ca2b5937696c3183604051610c1991906124ea565b60405180910390a35050565b610c36610c30610fb6565b83611077565b610c75576040517f08c379a0000000000000000000000000000000000000000000000000000000008152600401610c6c90612727565b60405180910390fd5b610c8184848484611493565b50505050565b6060610c9282610f4a565b610cd1576040517f08c379a0000000000000000000000000000000000000000000000000000000008152600401610cc8906126e7565b60405180910390fd5b6000610cdb6114ef565b90506000815111610cfb5760405180602001604052806000815250610d26565b80610d058461150f565b604051602001610d1692919061245f565b6040516020818303038152906040525b915050919050565b6000600660008473ffffffffffffffffffffffffffffffffffffffff1673ffffffffffffffffffffffffffffffffffffffff16815260200190815260200160002060008373ffffffffffffffffffffffffffffffffffffffff1673ffffffffffffffffffffffffffffffffffffffff16815260200190815260200160002060009054906101000a900460ff16905092915050565b610dca610fb6565b73ffffffffffffffffffffffffffffffffffffffff16610de86109e3565b73ffffffffffffffffffffffffffffffffffffffff1614610e3e576040517f08c379a0000000000000000000000000000000000000000000000000000000008152600401610e35906126a7565b60405180910390fd5b600073ffffffffffffffffffffffffffffffffffffffff168173ffffffffffffffffffffffffffffffffffffffff161415610eae576040517f08c379a0000000000000000000000000000000000000000000000000000000008152600401610ea590612547565b60405180910390fd5b610eb7816113cf565b50565b600860009054906101000a900473ffffffffffffffffffffffffffffffffffffffff1681565b60007f01ffc9a7000000000000000000000000000000000000000000000000000000007bffffffffffffffffffffffffffffffffffffffffffffffffffffffff1916827bffffffffffffffffffffffffffffffffffffffffffffffffffffffff1916149050919050565b60008073ffffffffffffffffffffffffffffffffffffffff166003600084815260200190815260200160002060009054906101000a900473ffffffffffffffffffffffffffffffffffffffff1673ffffffffffffffffffffffffffffffffffffffff1614159050919050565b600033905090565b816005600083815260200190815260200160002060006101000a81548173ffffffffffffffffffffffffffffffffffffffff021916908373ffffffffffffffffffffffffffffffffffffffff160217905550808273ffffffffffffffffffffffffffffffffffffffff16611031836107f1565b73ffffffffffffffffffffffffffffffffffffffff167f8c5be1e5ebec7d5bd14f71427d1e84f3dd0314c0f7b2291e5b200ac8c7c3b92560405160405180910390a45050565b600061108282610f4a565b6110c1576040517f08c379a00000000000000000000000000000000000000000000000000000000081526004016110b8906125e7565b60405180910390fd5b60006110cc836107f1565b90508073ffffffffffffffffffffffffffffffffffffffff168473ffffffffffffffffffffffffffffffffffffffff16148061113b57508373ffffffffffffffffffffffffffffffffffffffff166111238461051e565b73ffffffffffffffffffffffffffffffffffffffff16145b8061114c575061114b8185610d2e565b5b91505092915050565b8273ffffffffffffffffffffffffffffffffffffffff16611175826107f1565b73ffffffffffffffffffffffffffffffffffffffff16146111cb576040517f08c379a00000000000000000000000000000000000000000000000000000000081526004016111c2906126c7565b60405180910390fd5b600073ffffffffffffffffffffffffffffffffffffffff168273ffffffffffffffffffffffffffffffffffffffff16141561123b576040517f08c379a000000000000000000000000000000000000000000000000000000000815260040161123290612587565b60405180910390fd5b6112468383836116bc565b611251600082610fbe565b6001600460008573ffffffffffffffffffffffffffffffffffffffff1673ffffffffffffffffffffffffffffffffffffffff16815260200190815260200160002060008282546112a1919061288d565b925050819055506001600460008473ffffffffffffffffffffffffffffffffffffffff1673ffffffffffffffffffffffffffffffffffffffff16815260200190815260200160002060008282546112f89190612806565b92505081905550816003600083815260200190815260200160002060006101000a81548173ffffffffffffffffffffffffffffffffffffffff021916908373ffffffffffffffffffffffffffffffffffffffff160217905550808273ffffffffffffffffffffffffffffffffffffffff168473ffffffffffffffffffffffffffffffffffffffff167fddf252ad1be2c89b69c2b068fc378daa952ba7f163c4a11628f55a4df523b3ef60405160405180910390a4505050565b6113cb8282604051806020016040528060008152506116c1565b5050565b60008060009054906101000a900473ffffffffffffffffffffffffffffffffffffffff169050816000806101000a81548173ffffffffffffffffffffffffffffffffffffffff021916908373ffffffffffffffffffffffffffffffffffffffff1602179055508173ffffffffffffffffffffffffffffffffffffffff168173ffffffffffffffffffffffffffffffffffffffff167f8be0079c531659141344cd1fd0a4f28419497f9722a3daafe3b4186f6b6457e060405160405180910390a35050565b61149e848484611155565b6114aa8484848461171c565b6114e9576040517f08c379a00000000000000000000000000000000000000000000000000000000081526004016114e090612527565b60405180910390fd5b50505050565b60606040518060600160405280602e8152602001612b4d602e9139905090565b60606000821415611557576040518060400160405280600181526020017f300000000000000000000000000000000000000000000000000000000000000081525090506116b7565b600082905060005b60008214611589578080611572906129a9565b915050600a82611582919061285c565b915061155f565b60008167ffffffffffffffff8111156115cb577f4e487b7100000000000000000000000000000000000000000000000000000000600052604160045260246000fd5b6040519080825280601f01601f1916602001820160405280156115fd5781602001600182028036833780820191505090505b5090505b600085146116b057600182611616919061288d565b9150600a8561162591906129f2565b60306116319190612806565b60f81b81838151811061166d577f4e487b7100000000000000000000000000000000000000000000000000000000600052603260045260246000fd5b60200101907effffffffffffffffffffffffffffffffffffffffffffffffffffffffffffff1916908160001a905350600a856116a9919061285c565b9450611601565b8093505050505b919050565b505050565b6116cb83836118b3565b6116d8600084848461171c565b611717576040517f08c379a000000000000000000000000000000000000000000000000000000000815260040161170e90612527565b60405180910390fd5b505050565b600061173d8473ffffffffffffffffffffffffffffffffffffffff16611a81565b156118a6578373ffffffffffffffffffffffffffffffffffffffff1663150b7a02611766610fb6565b8786866040518563ffffffff1660e01b8152600401611788949392919061249e565b602060405180830381600087803b1580156117a257600080fd5b505af19250505080156117d357506040513d601f19601f820116820180604052508101906117d09190611d35565b60015b611856573d8060008114611803576040519150601f19603f3d011682016040523d82523d6000602084013e611808565b606091505b5060008151141561184e576040517f08c379a000000000000000000000000000000000000000000000000000000000815260040161184590612527565b60405180910390fd5b805181602001fd5b63150b7a0260e01b7bffffffffffffffffffffffffffffffffffffffffffffffffffffffff1916817bffffffffffffffffffffffffffffffffffffffffffffffffffffffff1916149150506118ab565b600190505b949350505050565b600073ffffffffffffffffffffffffffffffffffffffff168273ffffffffffffffffffffffffffffffffffffffff161415611923576040517f08c379a000000000000000000000000000000000000000000000000000000000815260040161191a90612667565b60405180910390fd5b61192c81610f4a565b1561196c576040517f08c379a000000000000000000000000000000000000000000000000000000000815260040161196390612567565b60405180910390fd5b611978600083836116bc565b6001600460008473ffffffffffffffffffffffffffffffffffffffff1673ffffffffffffffffffffffffffffffffffffffff16815260200190815260200160002060008282546119c89190612806565b92505081905550816003600083815260200190815260200160002060006101000a81548173ffffffffffffffffffffffffffffffffffffffff021916908373ffffffffffffffffffffffffffffffffffffffff160217905550808273ffffffffffffffffffffffffffffffffffffffff16600073ffffffffffffffffffffffffffffffffffffffff167fddf252ad1be2c89b69c2b068fc378daa952ba7f163c4a11628f55a4df523b3ef60405160405180910390a45050565b600080823b905060008111915050919050565b6000611aa7611aa284612793565b612762565b905082815260208101848484011115611abf57600080fd5b611aca848285612935565b509392505050565b600081359050611ae181612af0565b92915050565b600081359050611af681612b07565b92915050565b600081359050611b0b81612b1e565b92915050565b600081519050611b2081612b1e565b92915050565b600082601f830112611b3757600080fd5b8135611b47848260208601611a94565b91505092915050565b600081359050611b5f81612b35565b92915050565b600060208284031215611b7757600080fd5b6000611b8584828501611ad2565b91505092915050565b60008060408385031215611ba157600080fd5b6000611baf85828601611ad2565b9250506020611bc085828601611ad2565b9150509250929050565b600080600060608486031215611bdf57600080fd5b6000611bed86828701611ad2565b9350506020611bfe86828701611ad2565b9250506040611c0f86828701611b50565b9150509250925092565b60008060008060808587031215611c2f57600080fd5b6000611c3d87828801611ad2565b9450506020611c4e87828801611ad2565b9350506040611c5f87828801611b50565b925050606085013567ffffffffffffffff811115611c7c57600080fd5b611c8887828801611b26565b91505092959194509250565b60008060408385031215611ca757600080fd5b6000611cb585828601611ad2565b9250506020611cc685828601611ae7565b9150509250929050565b60008060408385031215611ce357600080fd5b6000611cf185828601611ad2565b9250506020611d0285828601611b50565b9150509250929050565b600060208284031215611d1e57600080fd5b6000611d2c84828501611afc565b91505092915050565b600060208284031215611d4757600080fd5b6000611d5584828501611b11565b91505092915050565b600060208284031215611d7057600080fd5b6000611d7e84828501611b50565b91505092915050565b611d90816128c1565b82525050565b611d9f816128d3565b82525050565b6000611db0826127c3565b611dba81856127d9565b9350611dca818560208601612944565b611dd381612adf565b840191505092915050565b6000611de9826127ce565b611df381856127ea565b9350611e03818560208601612944565b611e0c81612adf565b840191505092915050565b6000611e22826127ce565b611e2c81856127fb565b9350611e3c818560208601612944565b80840191505092915050565b6000611e556032836127ea565b91507f4552433732313a207472616e7366657220746f206e6f6e20455243373231526560008301527f63656976657220696d706c656d656e74657200000000000000000000000000006020830152604082019050919050565b6000611ebb6026836127ea565b91507f4f776e61626c653a206e6577206f776e657220697320746865207a65726f206160008301527f64647265737300000000000000000000000000000000000000000000000000006020830152604082019050919050565b6000611f21601c836127ea565b91507f4552433732313a20746f6b656e20616c7265616479206d696e746564000000006000830152602082019050919050565b6000611f616024836127ea565b91507f4552433732313a207472616e7366657220746f20746865207a65726f2061646460008301527f72657373000000000000000000000000000000000000000000000000000000006020830152604082019050919050565b6000611fc76019836127ea565b91507f4552433732313a20617070726f766520746f2063616c6c6572000000000000006000830152602082019050919050565b6000612007600a836127ea565b91507f6f6e6c792061646d696e000000000000000000000000000000000000000000006000830152602082019050919050565b6000612047602c836127ea565b91507f4552433732313a206f70657261746f7220717565727920666f72206e6f6e657860008301527f697374656e7420746f6b656e00000000000000000000000000000000000000006020830152604082019050919050565b60006120ad6038836127ea565b91507f4552433732313a20617070726f76652063616c6c6572206973206e6f74206f7760008301527f6e6572206e6f7220617070726f76656420666f7220616c6c00000000000000006020830152604082019050919050565b6000612113602a836127ea565b91507f4552433732313a2062616c616e636520717565727920666f7220746865207a6560008301527f726f2061646472657373000000000000000000000000000000000000000000006020830152604082019050919050565b60006121796029836127ea565b91507f4552433732313a206f776e657220717565727920666f72206e6f6e657869737460008301527f656e7420746f6b656e00000000000000000000000000000000000000000000006020830152604082019050919050565b60006121df6020836127ea565b91507f4552433732313a206d696e7420746f20746865207a65726f20616464726573736000830152602082019050919050565b600061221f602c836127ea565b91507f4552433732313a20617070726f76656420717565727920666f72206e6f6e657860008301527f697374656e7420746f6b656e00000000000000000000000000000000000000006020830152604082019050919050565b60006122856020836127ea565b91507f4f776e61626c653a2063616c6c6572206973206e6f7420746865206f776e65726000830152602082019050919050565b60006122c56029836127ea565b91507f4552433732313a207472616e73666572206f6620746f6b656e2074686174206960008301527f73206e6f74206f776e00000000000000000000000000000000000000000000006020830152604082019050919050565b600061232b602f836127ea565b91507f4552433732314d657461646174613a2055524920717565727920666f72206e6f60008301527f6e6578697374656e7420746f6b656e00000000000000000000000000000000006020830152604082019050919050565b60006123916021836127ea565b91507f4552433732313a20617070726f76616c20746f2063757272656e74206f776e6560008301527f72000000000000000000000000000000000000000000000000000000000000006020830152604082019050919050565b60006123f76031836127ea565b91507f4552433732313a207472616e736665722063616c6c6572206973206e6f74206f60008301527f776e6572206e6f7220617070726f7665640000000000000000000000000000006020830152604082019050919050565b6124598161292b565b82525050565b600061246b8285611e17565b91506124778284611e17565b91508190509392505050565b60006020820190506124986000830184611d87565b92915050565b60006080820190506124b36000830187611d87565b6124c06020830186611d87565b6124cd6040830185612450565b81810360608301526124df8184611da5565b905095945050505050565b60006020820190506124ff6000830184611d96565b92915050565b6000602082019050818103600083015261251f8184611dde565b905092915050565b6000602082019050818103600083015261254081611e48565b9050919050565b6000602082019050818103600083015261256081611eae565b9050919050565b6000602082019050818103600083015261258081611f14565b9050919050565b600060208201905081810360008301526125a081611f54565b9050919050565b600060208201905081810360008301526125c081611fba565b9050919050565b600060208201905081810360008301526125e081611ffa565b9050919050565b600060208201905081810360008301526126008161203a565b9050919050565b60006020820190508181036000830152612620816120a0565b9050919050565b6000602082019050818103600083015261264081612106565b9050919050565b600060208201905081810360008301526126608161216c565b9050919050565b60006020820190508181036000830152612680816121d2565b9050919050565b600060208201905081810360008301526126a081612212565b9050919050565b600060208201905081810360008301526126c081612278565b9050919050565b600060208201905081810360008301526126e0816122b8565b9050919050565b600060208201905081810360008301526127008161231e565b9050919050565b6000602082019050818103600083015261272081612384565b9050919050565b60006020820190508181036000830152612740816123ea565b9050919050565b600060208201905061275c6000830184612450565b92915050565b6000604051905081810181811067ffffffffffffffff8211171561278957612788612ab0565b5b8060405250919050565b600067ffffffffffffffff8211156127ae576127ad612ab0565b5b601f19601f8301169050602081019050919050565b600081519050919050565b600081519050919050565b600082825260208201905092915050565b600082825260208201905092915050565b600081905092915050565b60006128118261292b565b915061281c8361292b565b9250827fffffffffffffffffffffffffffffffffffffffffffffffffffffffffffffffff0382111561285157612850612a23565b5b828201905092915050565b60006128678261292b565b91506128728361292b565b92508261288257612881612a52565b5b828204905092915050565b60006128988261292b565b91506128a38361292b565b9250828210156128b6576128b5612a23565b5b828203905092915050565b60006128cc8261290b565b9050919050565b60008115159050919050565b60007fffffffff0000000000000000000000000000000000000000000000000000000082169050919050565b600073ffffffffffffffffffffffffffffffffffffffff82169050919050565b6000819050919050565b82818337600083830152505050565b60005b83811015612962578082015181840152602081019050612947565b83811115612971576000848401525b50505050565b6000600282049050600182168061298f57607f821691505b602082108114156129a3576129a2612a81565b5b50919050565b60006129b48261292b565b91507fffffffffffffffffffffffffffffffffffffffffffffffffffffffffffffffff8214156129e7576129e6612a23565b5b600182019050919050565b60006129fd8261292b565b9150612a088361292b565b925082612a1857612a17612a52565b5b828206905092915050565b7f4e487b7100000000000000000000000000000000000000000000000000000000600052601160045260246000fd5b7f4e487b7100000000000000000000000000000000000000000000000000000000600052601260045260246000fd5b7f4e487b7100000000000000000000000000000000000000000000000000000000600052602260045260246000fd5b7f4e487b7100000000000000000000000000000000000000000000000000000000600052604160045260246000fd5b6000601f19601f8301169050919050565b612af9816128c1565b8114612b0457600080fd5b50565b612b10816128d3565b8114612b1b57600080fd5b50565b612b27816128df565b8114612b3257600080fd5b50565b612b3e8161292b565b8114612b4957600080fd5b5056fe68747470733a2f2f766963746f726170692e6865726f6b756170702e636f6d2f6170692f706c617965726f6e652fa26469706673582212200af4fdfb25a8a4853ff3c9c16be85f21b630f13a2f52d014245c7f810816c36c64736f6c63430008000033",
  "immutableReferences": {},
  "source": "// SPDX-License-Identifier: MIT\npragma solidity ^0.8.0;\n\nimport \"@openzeppelin/contracts/access/Ownable.sol\";\nimport '@openzeppelin/contracts/token/ERC721/ERC721.sol';\n\ncontract playerone is Ownable, ERC721 {\n  uint public TokenId;\n  address public admin;\n\n  constructor() ERC721('Playerone NFT', 'PlayeroneNFT') {\n    admin = msg.sender;\n  }\n\n  function mint(address to, uint tokenid) external {\n    require(msg.sender == admin, 'only admin');\n    _safeMint(to, tokenid);\n    TokenId++;\n  }\n\n  function _baseURI() internal view override returns (string memory) {\n    return 'https://victorapi.herokuapp.com/api/playerone/';\n  }\n  \n\n}\n",
  "sourcePath": "/Users/haochiaoyiu/Desktop/victorlyapp/contracts/playerone.sol",
  "compiler": {
    "name": "solc",
    "version": "0.8.0+commit.c7dfd78e.Emscripten.clang"
  },
  "schemaVersion": "3.4.1",
  "updatedAt": "2021-07-13T14:26:21.185Z",
  "networkType": "ethereum",
  "devdoc": {
    "kind": "dev",
    "methods": {
      "approve(address,uint256)": {
        "details": "See {IERC721-approve}."
      },
      "balanceOf(address)": {
        "details": "See {IERC721-balanceOf}."
      },
      "getApproved(uint256)": {
        "details": "See {IERC721-getApproved}."
      },
      "isApprovedForAll(address,address)": {
        "details": "See {IERC721-isApprovedForAll}."
      },
      "name()": {
        "details": "See {IERC721Metadata-name}."
      },
      "owner()": {
        "details": "Returns the address of the current owner."
      },
      "ownerOf(uint256)": {
        "details": "See {IERC721-ownerOf}."
      },
      "renounceOwnership()": {
        "details": "Leaves the contract without owner. It will not be possible to call `onlyOwner` functions anymore. Can only be called by the current owner. NOTE: Renouncing ownership will leave the contract without an owner, thereby removing any functionality that is only available to the owner."
      },
      "safeTransferFrom(address,address,uint256)": {
        "details": "See {IERC721-safeTransferFrom}."
      },
      "safeTransferFrom(address,address,uint256,bytes)": {
        "details": "See {IERC721-safeTransferFrom}."
      },
      "setApprovalForAll(address,bool)": {
        "details": "See {IERC721-setApprovalForAll}."
      },
      "supportsInterface(bytes4)": {
        "details": "See {IERC165-supportsInterface}."
      },
      "symbol()": {
        "details": "See {IERC721Metadata-symbol}."
      },
      "tokenURI(uint256)": {
        "details": "See {IERC721Metadata-tokenURI}."
      },
      "transferFrom(address,address,uint256)": {
        "details": "See {IERC721-transferFrom}."
      },
      "transferOwnership(address)": {
        "details": "Transfers ownership of the contract to a new account (`newOwner`). Can only be called by the current owner."
      }
    },
    "version": 1
  },
  "userdoc": {
    "kind": "user",
    "methods": {},
    "version": 1
  }
}